:020000040800F2
:1000000000100020810D00084971000849710008A6
:1000100049710008497100084971000849710008D8
:1000200049710008497100084971000849710008C8
:1000300049710008497100084971000849710008B8
:1000400049710008497100084971000849710008A8
:100050004971000849710008497100084971000898
:100060004971000849710008497100084971000888
:100070004971000849710008497100084971000878
:100080004971000849710008497100084971000868
:100090004971000849710008497100084971000858
:1000A0004971000849710008497100084971000848
:1000B0004971000849710008497100084971000838
:1000C0004971000849710008497100084971000828
:1000D0004971000849710008497100084971000818
:1000E0004971000849710008497100084971000808
:1000F00049710008497100084971000849710008F8
:100100004971000865050008497100084971000837
:1001100049710008497100084971000849710008D7
:1001200049710008497100084971000849710008C7
:1001300049710008497100084971000849710008B7
:100140004971000849710008497100087376000878
:100150004971000849710008497100084971000897
:100160004971000849710008497100084971000887
:10017000013800D0FCE770470348044B834202D0AB
:10018000034B03B1184770479410002094100020CF
:1001900000000000064B0749C91A891048BF013109
:1001A000491003D0044B0BB101481847704700BFFA
:1001B00094100020941000200000000010B5064CA0
:1001C000237843B9FFF7D8FF044B13B10448AFF3CA
:1001D00000800123237010BD1211002000000000D8
:1001E000547C000808B5054B1BB105490548AFF321
:1001F0000080BDE80840FFF7CDBF00BF0000000051
:1002000094100020547C0008A3F5803A704700BF8A
:10021000174B002B08BF134B9D46FFF7F5FF00213E
:100220008B460F461348144A121A07F085FA0E4BF4
:10023000002B00D098470D4B002B00D09847002092
:10024000002104000D000D48002802D00C48AFF337
:10025000008006F0A3FD2000290006F00CFE06F049
:100260008BFD00BF0000080000000000000000003F
:1002700000100020941000201C110020000000003D
:100280000000000008B5034A0349044800F02AFAB8
:1002900000BF08BD0010002004100020081000203E
:1002A00008B5024800F05CFA00BF08BDAC100020A1
:1002B00082B003468DF807309DF90730002B0CDB28
:1002C0009DF8073003F01F0205499DF907305B09CF
:1002D000012000FA02F241F8232000BF02B070476B
:1002E00000E100E082B003468DF807309DF9073049
:1002F000002B0DDB9DF8073003F01F0206499DF926
:1003000007305B09012000FA02F2603341F8232034
:1003100000BF02B0704700BF00E100E030B595B00B
:1003200003900291039B1B68002B54D1039B09226D
:100330001A7100238DF84F3049E09DF84F20814914
:1003400013469B0013440B4404331B7883F00103D2
:10035000DBB2002B36D0039B9DF84F201A71039B14
:10036000029A1A609DF84F20764913469B00134469
:100370000B44043301221A709DF84F207149134633
:100380009B0013440B4401221A70039B1B681A78CC
:10039000039B1B685B789DF84F401946104606F09A
:1003A0004EFD03461946674A23469B0023441344E7
:1003B00001330A461A70644B1B780133DAB2624B80
:1003C0001A7008E09DF84F3001338DF84F309DF8DA
:1003D0004F30072BB1D9039B1B79092B00F0AE805E
:1003E00010AB00221A605A609A60584B06AC1D464A
:1003F0000FCD0FC40FCD0FC495E8030084E80300B0
:1004000000238DF8103000238DF8113003238DF870
:10041000123000238DF8133000238DF814300023A0
:100420008DF8153000238DF8163001212A2001F0B7
:1004300081F902214FF4B06001F010FF02238DF822
:10044000433000224249434805F082F903468DF8C3
:10045000453003238DF81C3040F6E4430993002314
:100460008DF8193002238DF81B309DF8453000932C
:10047000002300223849374805F0B0F903460893B5
:1004800007238DF8123001238DF8113006AA10AB26
:100490001946304804F08CFB04AB2A4A19462D4813
:1004A00005F048F8039B1B681B78002B10D12B4BE1
:1004B000D3F82033294A43F00103C2F82033274BF5
:1004C000D3F82033254A43F48033C2F8203325E0A3
:1004D000039B1B681B78012B10D1204BD3F82433CE
:1004E0001E4A43F00103C2F824331C4BD3F82433D3
:1004F0001A4A43F48033C2F824330FE0174BD3F881
:100500002833164A43F00103C2F82833134BD3F8BB
:100510002833124A43F48033C2F8283310490D4877
:1005200006F060FC4FF480710A4806F067FC312049
:10053000FFF7D8FE3120FFF7BBFE00E000BF15B08B
:1005400030BD00BF0C10002013110020A077000860
:10055000002D3101004000598096980000C00350E2
:100560008F330F8000B583B00023009300238DF8F4
:10057000043019E06B461549184606F080FF009BD1
:100580009DF8042099B2124B23F812109DF8043004
:100590001A460F4B33F812309BB29DF804201B0112
:1005A00099B20B4B23F81210084806F03CFC0346A6
:1005B000002BDFD1074B01221A704FF480710348E2
:1005C00006F010FC00BF03B05DF804FB00400059CA
:1005D000BC1000201411002030B589B00190082112
:1005E0001C4806F017FC06F03FFCCDE90401DDE9EC
:1005F0000423CDE906230CE006F036FCCDE9060124
:10060000154B1B78DBB2012B03D1134B00221A7060
:100610000CE0DDE90601DDE90423841A61EB030542
:1006200040F2E9339C4275F10003E5D3019B1B794D
:100630001A460A4B33F81230ADF80E30019B1B7985
:100640001A46064B002123F81210BDF80E3018464A
:1006500009B030BD0040005914110020BC1000202A
:1006600000B583B0034600918DF807309DF8073040
:10067000002B14D09DF80730012B0ED09DF80730C9
:10068000022B07D09DF80730032B01D13F2307E051
:10069000002305E040F2FF3302E00F2300E0FF23D8
:1006A000009AD34003F00103002B04D140F2CF3174
:1006B0000A4806F06EFD9DF8072013465B001344C0
:1006C0001B0103F11402064B13440099184606F06F
:1006D000DDFB0346184603B05DF804FBC87700084D
:1006E00030C0035000B587B0039002910192184AC0
:1006F000039B1B881380174A029B1B881380164A92
:10070000019B1B881380144B1878134B5B78194698
:100710000123042203F064FD0E4B18780D4B5B7827
:1007200019460123022203F05BFD094B1B788DF86B
:100730001430074B5B788DF8153005AB1946074828
:10074000FFF7ECFD00F0D0F800BF07B05DF804FB48
:10075000D4100020D8100020DC100020CC10002085
:1007600000B585B00190019B00225A60019B0022D8
:100770001A70019B00225A70019B00229A60019B13
:100780000022DA60019B03F10802019B0433194641
:10079000104600F0CDF8019B9B68154AA2FB03238D
:1007A0009A09019B9A60019B5B68114A82FB0312C4
:1007B0009211DB17D21A019B5A600E48FFF70CFF0B
:1007C0000346ADF80E30BDF80E20019BDA600A4BEF
:1007D0001B78094A527811461846FFF741FF0290EC
:1007E000029BDAB2019B1A7000BF05B05DF804FBF2
:1007F000D34D6210CC100020D810002008B501F0B5
:1008000019FD06F0FCFC304B1B6F23F007032E4A4A
:1008100043F00303136706F0FFFC2C4B9B6A03F0C5
:100820008073002B06D1294B03F500531A464FF471
:1008300080339362244BD3F8203123F00703224AFC
:1008400043F00203C2F820311F4BD3F8283123F0C4
:1008500007031D4A43F00203C2F828311A4BD3F8AC
:10086000403123F00303184A43F00203C2F8403139
:10087000154BD3F8603123F00303134A43F002030E
:10088000C2F86031104BD3F8403223F003030E4A14
:1008900043F00203C2F840320B4BD3F8003223F08E
:1008A0000703094A43F00203C2F80032064BD3F8AB
:1008B000083223F00703044A43F00203C2F8083267
:1008C0000023184608BD00BF008000500040005AB9
:1008D00008B501213A2000F02DFF024800F08AFC03
:1008E00000BF08BD6010002000B583B0012000F0FB
:1008F0003DF80190012000F06FF8019B002B01D121
:1009000000BFFDE74021019806F021FB0090009B0D
:10091000002B03D1054B01221A7002E0034B002289
:100920001A70009B184603B05DF804FB15110020F7
:1009300000B585B0019000910B4B1B78002B0BD0BC
:10094000012000F013F80290009B019A40210298C8
:1009500006F029FB039001E011230393039B184643
:1009600005B05DF804FB00BF1511002084B00190B4
:10097000184B1B680393019B013B0F2B22D801A24C
:1009800052F823F0CB090008CB090008C50900087C
:10099000CB090008C5090008C5090008C5090008F9
:1009A000CB090008C5090008C5090008C5090008E9
:1009B000C5090008C5090008C5090008C5090008DF
:1009C000CB0900080023039300E000BF039B1846F7
:1009D00004B070475C10002000B585B001900E2374
:1009E0000393019B202B4BDC019B002B40F3878062
:1009F000019B013B1F2B00F2828001A252F823F0E1
:100A0000890A00089B0A0008FF0A0008AD0A0008CE
:100A1000FF0A0008FF0A0008FF0A0008BF0A0008D2
:100A2000FF0A0008FF0A0008FF0A0008FF0A000882
:100A3000FF0A0008FF0A0008FF0A0008D10A0008A0
:100A4000FF0A0008FF0A0008FF0A0008FF0A000862
:100A5000FF0A0008FF0A0008FF0A0008FF0A000852
:100A6000FF0A0008FF0A0008FF0A0008FF0A000842
:100A7000FF0A0008FF0A0008FF0A0008DB0A000856
:100A8000019B402B32D03AE00123042209210220AD
:100A900003F0A6FB0023039336E00123042209217F
:100AA000022003F09DFB002303932DE00123042289
:100AB0000921022003F094FB0023039324E0012387
:100AC00004220921022003F08BFB002303931BE087
:100AD000B921104806F05DFB16E00123042209212C
:100AE000022003F07DFB002303930DE00123042289
:100AF0000821022003F074FB0023039304E0D821B3
:100B0000044806F046FB00BF039B184605B05DF89D
:100B100004FB00BF0078000800B583B003460091D5
:100B20008DF807309DF80730002B14D09DF8073062
:100B3000012B0ED09DF80730022B07D09DF807300F
:100B4000032B01D13F2307E0002305E040F2FF33F0
:100B500002E00F2300E0FF23009AD34003F00103DB
:100B6000002B04D140F2FE310A4806F012FB0A487D
:100B70009DF807200121009B994013465B00134418
:100B80001B01034403F50153196000BF03B05DF876
:100B900004FB00BF4478000800C0035000B583B0D8
:100BA000034600918DF807309DF80730002B14D0D4
:100BB0009DF80730012B0ED09DF80730022B07D08F
:100BC0009DF80730032B01D13F2307E0002305E008
:100BD00040F2FF3302E00F2300E0FF23009AD340EE
:100BE00003F00103002B04D140F22D410A4806F026
:100BF000D0FA0A489DF807200121009B994013462E
:100C00005B0013441B01034403F58253196000BFCA
:100C100003B05DF804FB00BF4478000800C0035037
:100C200030B589B0454B01AC1D460FCD0FC495E8DA
:100C3000070084E8070001213A2000F07BFD012134
:100C4000292000F077FD01238DF812303C4B0393EF
:100C500001AB19463B4804F0EDFE012304220321B9
:100C6000022003F0BDFA002301220221022003F03A
:100C7000B7FA012304220121022003F0B1FA012373
:100C800004220021022003F0ABFA2F4B2F4AC3F8B5
:100C900034272D4B4FF00212C3F830272A4B2C4A31
:100CA000C3F83827284B1C22C3F820274FF448707C
:100CB00005F092FE06F03DF9142005F08DFE06F0D9
:100CC0003FF9232005F088FE06F033F9B9211D48CD
:100CD00006F0ECFB06F034F9002300220321022089
:100CE00003F07EFA002300220221022003F078FAAA
:100CF000012300220121022003F072FA01230022C5
:100D00000021022003F06CFA0E4804F017FF0E4B8E
:100D10000022C3F834270C4B0022C3F830270A4BBB
:100D20000022C3F83827084B0022C3F820270021EF
:100D3000292000F0FFFC00BF09B030BD7C7800081E
:100D400000127A0000C0055000C0035002000100EC
:100D50000200030000B583B0064A074BD31A9B106C
:100D60000193019A0549044806F0F0F900BF03B069
:100D70005DF804FBFC7C0008FC7C00081C110020D2
:100D800000B585B000F080F8FFF7E4FF1F4B039338
:100D900019E0002302930EE0039B1A68029B9B005C
:100DA0001A44039B5968029B9B000B4412681A600B
:100DB000029B01330293039B9B68029A9A42EBD3F6
:100DC000039B0C330393039B114A9342E1D3114BD2
:100DD000019314E00023009309E0019B1A68009B33
:100DE0009B00134400221A60009B01330093019B77
:100DF0005B68009A9A42F0D3019B08330193019BF0
:100E0000054A9342E6D3FFF703FA00BF5C7C000873
:100E1000687C0008687C0008687C000882B0034693
:100E20008DF807309DF90730002B0CDB9DF807305B
:100E300003F01F0205499DF907305B09012000FA04
:100E400002F241F8232000BF02B0704700E100E049
:100E500082B003468DF807309DF90730002B0DDB7B
:100E60009DF8073003F01F0206499DF907305B0922
:100E7000012000FA02F2603341F8232000BF02B0E3
:100E8000704700BF00E100E008B51D4B1D4A9A60A5
:100E90001B4BD3F888301A4A43F47003C2F88830E9
:100EA000194B03F580531A464FF480439366174B52
:100EB00003F500531A464FF0FF331366134B03F547
:100EC00000531A46124B5366124B02221A60BFF3AC
:100ED0004F8F00BFBFF36F8F00BF0020FFF7B8FF39
:100EE0000A4B03F500531A464FF44033D3600020F9
:100EF000FFF794FF054B4FF440321A6100BF08BD65
:100F000000ED00E000000008008000500080004478
:100F1000F7FF3700D0ED00E0014B1B681846704723
:100F20007C10002000B583B0002301930E4B1B6F93
:100F300003F00703032B09D0032B0FD8012B09D093
:100F4000022B0BD1FFF7E8FF019008E0074B1B686D
:100F5000019304E0064B019301E0FFE7FDE7019BED
:100F6000184603B05DF804FB0080005074100020A8
:100F7000002D310100B583B0FFF7D4FF01900A4B7B
:100F80001B6F1B0B03F00F030093009B0133019AAF
:100F9000B2FBF3F30193054A019B1360019B1846D2
:100FA00003B05DF804FB00BF0080005080100020FB
:100FB000014B1846704700BF00B4C404014B1B68C6
:100FC000184670477410002000B583B00190074A9E
:100FD000019B1360064B1B6F03F00703032B01D12A
:100FE000FFF7C8FF00BF03B05DF804FB74100020DA
:100FF00000800050014B1846704700BF002D3101A2
:1010000082B0002301934FF0B4439B681B0C03F0A4
:101010001F030C2B4CD801A252F823F051100008EA
:10102000B1100008B1100008B1100008B11000089C
:10103000B11000088D1000089310000899100008E6
:10104000B11000089F100008A5100008AB100008A0
:101050004FF0B4439B6803F04073B3F1007F0ED0B0
:10106000B3F1007F0ED8002B03D0B3F1807F03D003
:1010700008E0124B019308E0114B019305E0114B7E
:10108000019302E00023019300BF12E00E4B019395
:101090000FE00E4B01930CE00D4B019309E00D4B5B
:1010A000019306E00C4B019303E00C4B019300E02D
:1010B00000BF019B184602B0704700BF00093D0009
:1010C00080841E0040420F00405DC6000024F400F2
:1010D000C0EA210180BA8C010048E801005A62028E
:1010E000014B1B68184670477810002000B583B08C
:1010F000034600918DF807309DF80730002B14D07F
:101100009DF80730012B0ED09DF80730022B07D039
:101110009DF80730032B01D13F2307E0002305E0B2
:1011200040F2FF3302E00F2300E0FF23009AD34098
:1011300003F00103002B04D140F2FE310A4806F00F
:1011400028F80A489DF807200121009B9940134682
:101150005B0013441B01034403F50153196000BFF6
:1011600003B05DF804FB00BF9878000800C003508E
:1011700000B583B0034600918DF807309DF8073025
:10118000002B14D09DF80730012B0ED09DF80730AE
:10119000022B07D09DF80730032B01D13F2307E036
:1011A000002305E040F2FF3302E00F2300E0FF23BD
:1011B000009AD34003F00103002B04D140F22D41EB
:1011C0000A4805F0E6FF0A489DF807200121009B28
:1011D000994013465B0013441B01034403F58253FB
:1011E000196000BF03B05DF804FB00BF98780008E9
:1011F00000C0035000B589B00190019B002B03D1C2
:1012000039214E4805F0C5FF019B1B68B3F1B64F6D
:1012100002D12E2306930CE0019B1B68484A93429F
:1012200002D12F23069304E04F21444805F0B1FF7B
:1012300081E00121069800F07DFA019B1879019B5D
:101240005B79194601230A2202F0CAFF019B9879B3
:10125000019BDB79194601230A2202F0C1FF00231A
:10126000079318E0019B1A79019B5B791946104698
:10127000FFF73CFF642005F0AFFB019B1A79019B4F
:101280005B7919461046FFF773FF642005F0A4FB55
:10129000079B01330793079B092BE3DD019B1B6829
:1012A000B3F1B64F15D1274B0322C3F8E824019BB5
:1012B0005B791B04019A12791A43224BC3F8EC2480
:1012C000019BDB791B04019A92791A431D4BC3F8E9
:1012D000F024019B1B681A4A934215D1194B032233
:1012E000C3F8F824019B5B791B04019A12791A4315
:1012F000144BC3F8FC24019BDB791B04019A9279FF
:101300001A43104BC3F8002501238DF80830012340
:101310008DF80930019BDB680493019B9B68039364
:10132000019B1B7C8DF81430019B1B6802AA11469F
:10133000184603F001F909B05DF804FBD078000805
:101340000080065000C0035000B585B001900091A8
:101350000F4B02930099019803F092FB03468DF81E
:101360000F3005E0019803F025F903468DF80F30A2
:101370009DF90F30012B04D1029B5A1E0292002BC3
:10138000F0D19DF90F30184605B05DF804FB00BFA1
:10139000E093040000B587B0039002910192029B94
:1013A0001F2B03D991210C4805F0F3FE019B002B64
:1013B00004D0039B03F58053059303E0039B03F5DF
:1013C00000530593059B0121029A01FA02F21A606B
:1013D00000BF07B05DF804FB1079000808B500BF36
:1013E0000421044805F0E4FE0346002BF8D100BFB9
:1013F00000BF08BD8440005008B5FFF7EFFF044B65
:10140000D3F884309B0903F00303DBB2184608BD10
:1014100000400050034B5B6A024A43F001035362F1
:1014200000BF704700C00750034B5B6A024A23F0BD
:101430000103536200BF704700C00750054BDB69D2
:1014400003F48033002B14BF01230023DBB21846C2
:10145000704700BF00000350024B0022DA6300BF58
:10146000704700BF00000350024B41F67132DA634F
:1014700000BF704700000350014B5B68184670477F
:101480000000035082B00190024A019B536000BFEC
:1014900002B070470000035000B585B001900023F2
:1014A0000393019BB3F5607F35D0019BB3F5607F5B
:1014B00059D8019BB3F5207F4ED0019BB3F5207F17
:1014C00051D8019BB3F5007F3ED0019BB3F5007F5F
:1014D00049D8019B002B03D0019BB3F5C07F42D1BB
:1014E000264B1B6F1B0B03F00F030393039B002B77
:1014F0003BD0039B012B38D0039B032B35D0039BA0
:10150000072B32D0039B0F2B2FD040F285211C4894
:1015100005F03FFE29E0194BD3F880301B0903F09A
:1015200003030393039B002B21D0039B012B1ED0AD
:10153000039B022B1BD0039B032B18D040F2952159
:101540000F4805F026FE12E00C4BD3F890301B0E2E
:1015500003F01F0303930BE0084B1B6F9B0A03F080
:101560000103039304E000BF02E000BF00E000BFFE
:10157000039B0133184605B05DF804FB0080005062
:101580004479000810B584B001900091019BB3F537
:10159000607F54D0019BB3F5607F00F2BA80019B5D
:1015A000B3F5207F00F09F80019BB3F5207F00F210
:1015B000B080019BB3F5007F7DD0019BB3F5007F28
:1015C00000F2A780019B002B04D0019BB3F5C07FE4
:1015D00040F09F80009B012B10D0009B022B0DD070
:1015E000009B042B0AD0009B082B07D0009B102BDC
:1015F00004D040F2C7214C4805F0CBFD05F03FFE7A
:1016000005F035FE01F0BAFF484B1B6F23F4704222
:10161000009B013B1B03454913430B6705F0C2FDCB
:101620000446FFF7E9FE0346C3F1020319462046CC
:1016300005F009FE02F0EEF901F0ACFF70E03C4B62
:10164000DB6803F08073002B14BF012300238DF8A7
:101650000F309DF80F30002B05D0354BDB68344A36
:1016600023F08073D360009B012B0DD0009B022BD5
:101670000AD0009B032B07D0009B042B04D040F220
:10168000F221294805F085FD284BD3F8803023F05E
:101690003002009B013B1B0124491343C1F88030F9
:1016A0009DF80F30002B3AD0214BDB68204A43F0E5
:1016B0008073D36033E0009B002B02D0009B202B73
:1016C00004D940F20631184805F063FD174BD3F8F2
:1016D000903023F0F852009B013B1B061349134343
:1016E000C1F890301CE0009B012B07D0009B022B1F
:1016F00004D04FF443710C4805F04BFD0B4B1B6FAE
:1017000023F48062009B013B9B02084913430B6753
:1017100006E040F21231044805F03BFD00E000BF56
:1017200000BF04B010BD00BF447900080080005025
:10173000F0ED00E000B585B001900B468DF8033068
:1017400000230393019B5B09002B05D140F22F314D
:10175000124805F01EFD12E0019B5B09012B02D12E
:101760000F4B03930BE0019B5B09022B02D10D4B46
:10177000039304E040F23D31084805F00AFD019B67
:1017800003F01F0302939DF803301A460299039851
:10179000FFF700FE00BF05B05DF804FB44790008C8
:1017A000648000506880005010B584B00190002320
:1017B000039300230293019BB3F5486F00F0298344
:1017C000019BB3F5486F00F23683019BB3F5406F80
:1017D00000F0EF82019BB3F5406F00F22C83019B78
:1017E000B3F5286F00F01B83019BB3F5286F00F25F
:1017F0002283019BB3F5206F00F00583019BB3F5B5
:10180000206F00F21883019BB3F5106F00F0EF8298
:10181000019BB3F5106F00F20E83019BB3F5F06FDF
:1018200000F00383019BB3F5F06F00F20483019B8A
:10183000B3F5E06F00F0E182019BB3F5E06F00F2D9
:10184000FA82019BB3F5D06F00F0CB82019BB3F518
:10185000D06F00F2F082019BB3F5C06F00F0BB8245
:10186000019BB3F5C06F00F2E682019BB3F5B06F48
:1018700000F0A582019BB3F5B06F00F2DC82019B02
:10188000B3F5A06F00F08F82019BB3F5A06F00F25B
:10189000D282019BB3F5806F00F07F82019BB3F58C
:1018A000806F00F2C882019BB3F5607F00F0668212
:1018B000019BB3F5607F00F2BE82019BB3F5407FD0
:1018C00000F04F82019BB3F5407F00F2B482019B90
:1018D000B3F5207F00F03982019BB3F5207F00F241
:1018E000AA82019BB3F5007F00F02382019BB3F530
:1018F000007F00F2A082019BB3F5807F00F20A8294
:10190000019BB3F5807F00F2968201A252F823F08A
:10191000291D0008371E0008371E0008371E000862
:10192000371E0008371E0008371E0008371E000843
:10193000371E0008371E0008371E0008371E000833
:10194000371E0008371E0008371E0008371E000823
:10195000371E0008371E0008371E0008371E000813
:10196000371E0008371E0008371E0008371E000803
:10197000371E0008371E0008371E0008371E0008F3
:10198000371E0008371E0008371E0008371E0008E3
:10199000291D00084B1D0008291D00084B1D0008CB
:1019A0009B1D00089B1D00089B1D00089B1D000837
:1019B0009B1D00084B1D0008BF1D0008631D00088B
:1019C000D71D0008E31D0008631D00084B1D00081B
:1019D0004B1D00084B1D0008371E0008371E00086D
:1019E000371E0008371E0008371E0008371E000883
:1019F000371E0008371E00084B1D00084B1D00084D
:101A00004B1D00082B1E0008FB1D00084B1D000885
:101A1000371E0008371E0008371E0008371E000852
:101A2000371E0008371E0008371E0008371E000842
:101A3000371E0008371E0008371E0008371E000832
:101A4000371E00089B1D0008291D0008291D0008DD
:101A5000291D0008EF1D0008631D0008631D000814
:101A6000071E00081F1E0008A71D0008B31D000860
:101A7000371E0008371E0008371E0008371E0008F2
:101A8000371E0008131E0008291D0008371E000815
:101A9000371E0008371E0008371E0008371E0008D2
:101AA000371E0008371E0008371E0008371E0008C2
:101AB000371E0008371E0008371E0008371E0008B2
:101AC000371E0008371E0008371E0008371E0008A2
:101AD000371E0008371E0008371E0008371E000892
:101AE000371E0008371E0008371E0008371E000882
:101AF000371E0008371E0008371E0008371E000872
:101B0000371E0008371E0008371E0008371E000861
:101B10001F1D0008371E0008371E0008371E00086A
:101B2000371E0008371E0008371E0008371E000841
:101B3000371E0008371E0008371E0008371E000831
:101B4000371E0008371E0008371E0008371E000821
:101B5000371E0008371E0008371E0008371E000811
:101B6000371E0008371E0008371E0008371E000801
:101B7000371E0008371E0008371E0008371E0008F1
:101B8000371E0008371E0008371E0008371E0008E1
:101B9000371E0008371E0008371E0008371E0008D1
:101BA000371E0008371E0008371E0008371E0008C1
:101BB000371E0008371E0008371E0008371E0008B1
:101BC000371E0008371E0008371E0008371E0008A1
:101BD000371E0008371E0008371E0008371E000891
:101BE000371E0008371E0008371E0008371E000881
:101BF000371E0008371E0008371E0008371E000871
:101C0000371E0008371E0008371E0008371E000860
:101C1000371E0008371E0008371E0008371E000850
:101C2000371E0008371E0008371E0008371E000840
:101C3000371E0008371E0008371E0008371E000830
:101C4000371E0008371E0008371E0008371E000820
:101C5000371E0008371E0008371E0008371E000810
:101C6000371E0008371E0008371E0008371E000800
:101C7000371E0008371E0008371E0008371E0008F0
:101C8000371E0008371E0008371E0008371E0008E0
:101C9000371E0008371E0008371E0008371E0008D0
:101CA000371E0008371E0008371E0008371E0008C0
:101CB000371E0008371E0008371E0008371E0008B0
:101CC000371E0008371E0008371E0008371E0008A0
:101CD000371E0008371E0008371E0008371E000890
:101CE000371E0008371E0008371E0008371E000880
:101CF000371E0008371E0008371E0008371E000870
:101D0000371E0008371E0008371E0008371E00085F
:101D1000CB1D0008019BB3F5C07F05D08BE0FFF71A
:101D200001F9034603938CE0FFF724F9034603937C
:101D300087E0FFF7F7F804464FF40070FFF7ACFBBD
:101D40000346B4FBF3F303937BE0FFF713F9044678
:101D50004FF42070FFF7A0FB0346B4FBF3F30393AB
:101D60006FE0FFF707F904464FF42070FFF794FB8C
:101D70000346B4FBF3F35B08039362E002AB00217C
:101D8000184601F01DFC029C4FF46070FFF784FBC5
:101D90000346B4FBF3F3039353E003AB002118466F
:101DA00001F09AFC4DE003AB0021184601F050FA17
:101DB00047E003AB0021184601F0A0FA41E003AB75
:101DC0000021184601F0E0FD3BE003AB002118467E
:101DD00001F02CFF35E003AB0021184601F0DEFCDA
:101DE0002FE003AB0021184601F078FE29E003AB99
:101DF0000021184601F0C6FE23E003AB002118467F
:101E000001F022FE1DE003AB0021184601F0D4FAD8
:101E100017E003AB0021184601F022FB11E003ABF1
:101E20000021184601F070FB0BE003AB00211846BF
:101E300001F0FEFC05E040F29441044805F0A9F9E8
:101E400000BF039B184604B010BD00BF44790008D2
:101E500000B585B0019000230393019BB3F5486F53
:101E600000F0CD81019BB3F5486F00F2D481019B56
:101E7000B3F5406F00F0B181019BB3F5406F00F204
:101E8000CA81019BB3F5286F00F0BF81019BB3F5B8
:101E9000286F00F2C081019BB3F5206F00F0A9818B
:101EA000019BB3F5206F00F2B681019BB3F5106F73
:101EB00000F07B81019BB3F5106F00F2AC81019BB8
:101EC000B3F5086F00F07781019BB3F5086F00F25E
:101ED000A281019BB3F5F06F00F05B81019BB3F52C
:101EE000F06F00F29881019BB3F5E06F00F07B8109
:101EF000019BB3F5E06F00F28E81019BB3F5D06FCB
:101F000000F04D81019BB3F5D06F00F28481019BFD
:101F1000B3F5C06F00F03781019BB3F5C06F00F2DD
:101F20007A81019BB3F5B06F00F01B81019BB3F583
:101F3000B06F00F27081019BB3F5A06F00F0478194
:101F4000019BB3F5A06F00F26681019BB3F5806F32
:101F500000F00D81019BB3F5806F00F25C81019B65
:101F6000B3F5607F00F02D81019BB3F5607F00F237
:101F70005281019B802B00F2C780019B242BC0F073
:101F80004A81019B243B5C2B00F2458101A252F85F
:101F900023F000BF6F2100086F2100086F210008A7
:101FA0006F2100086F210008172200086321000834
:101FB00017220008872100089F2100081722000827
:101FC000172200081722000817220008172200080D
:101FD00017220008172200081722000817220008FD
:101FE00017220008172200081722000817220008ED
:101FF000172200081722000893210008E721000893
:1020000017220008172200081722000817220008CC
:1020100017220008172200081722000817220008BC
:1020200017220008172200081722000817220008AC
:1020300017220008172200086F2100081722000845
:102040001722000817220008AB21000817220008F9
:1020500017220008F32100080B220008CF210008F6
:10206000DB210008172200081722000817220008A9
:102070001722000817220008FF2100081722000875
:10208000172200081722000817220008172200084C
:10209000172200081722000817220008172200083C
:1020A000172200081722000817220008172200082C
:1020B000172200081722000817220008172200081C
:1020C000172200081722000817220008172200080C
:1020D00017220008172200081722000817220008FC
:1020E00017220008172200081722000817220008EC
:1020F00017220008172200081722000817220008DC
:102100001722000813210008019BB3F5807F34D00B
:1021100081E0464B1B6F03F00703013B032B17D8ED
:1021200001A252F823F000BF4B210008392100081A
:102130003F210008452100080523039310E00323F5
:1021400003930DE0082303930AE00223039307E0BF
:102150000023039340F2C641354805F01AF800BF4A
:102160005FE003AB1946002001F00EFC59E003AB21
:102170001946002001F0B0FA53E003AB19460020E5
:1021800001F054FD4DE003AB1946002001F006FBC1
:1021900047E003AB1946002001F04AFB41E003ABE6
:1021A0001946002001F09AFC3BE003AB19460020E1
:1021B00001F0E8FC35E003AB1946002001F042FADB
:1021C0002FE003AB1946002001F0FAF929E003AB38
:1021D0001946002001F03CF823E003AB194600202B
:1021E00001F08CF81DE003AB1946002001F02CFC37
:1021F00017E003AB1946002001F0DEF811E003AB55
:102200001946002001F02CF90BE003AB1946002021
:1022100001F07AF905E040F27951054804F0B9FF80
:1022200000BF039B184605B05DF804FB008000501A
:1022300044790008074B03F580531A464FF4801386
:102240005366054B03F580531A464FF4803393626F
:1022500000BF7047008000500040005A10B584B0A5
:10226000019000910023039300238DF80B3000238D
:102270008DF80A30019BB3F5486F00F03A85019B59
:10228000B3F5486F00F29785019BB3F5406F00F0FE
:102290007184019BB3F5406F00F28D85019BB3F50E
:1022A000286F00F06A85019BB3F5286F00F28385E3
:1022B000019BB3F5206F00F0D884019BB3F5206F2C
:1022C00000F27985019BB3F5106F00F04583019B07
:1022D000B3F5106F00F26F85019BB3F5086F00F046
:1022E0008183019BB3F5086F00F26585019BB3F50F
:1022F000F06F00F0AF82019BB3F5F06F00F25B85E9
:10230000019BB3F5E06F00F07384019BB3F5E06FC0
:1023100000F25185019BB3F5D06F00F0D882019B8C
:10232000B3F5D06F00F24785019BB3F5C06F00F0A5
:102330004C82019BB3F5C06F00F23D85019BB3F564
:10234000B06F00F07581019BB3F5B06F00F233857B
:10235000019BB3F5A06F00F0C283019BB3F5A06FA2
:1023600000F22985019BB3F5806F00F08881019B05
:10237000B3F5806F00F21F85019BB3F5607F00F01D
:102380006883019BB3F5607F00F21585019B802B6C
:1023900000F2C680019B242BC0F00D85019B243BDD
:1023A0005C2B00F2088501A252F823F07F2600087A
:1023B0007F2600087F2600087F2600087F26000869
:1023C000B72D000831260008B72D0008CB270008DC
:1023D000CF280008B72D0008B72D0008B72D00083A
:1023E000B72D0008B72D0008B72D0008B72D00083D
:1023F000B72D0008B72D0008B72D0008B72D00082D
:10240000B72D0008B72D0008B72D0008B72D00081C
:1024100055280008F12B0008B72D0008B72D00083B
:10242000B72D0008B72D0008B72D0008B72D0008FC
:10243000B72D0008B72D0008B72D0008B72D0008EC
:10244000B72D0008B72D0008B72D0008B72D0008DC
:102450007F260008B72D0008B72D0008B72D00080B
:1024600059290008B72D0008B72D00086B2C00086B
:102470007B2D0008DF2A0008752B0008B72D000807
:10248000B72D0008B72D0008B72D0008B72D00089C
:10249000F32C0008B72D0008B72D0008B72D000851
:1024A000B72D0008B72D0008B72D0008B72D00087C
:1024B000B72D0008B72D0008B72D0008B72D00086C
:1024C000B72D0008B72D0008B72D0008B72D00085C
:1024D000B72D0008B72D0008B72D0008B72D00084C
:1024E000B72D0008B72D0008B72D0008B72D00083C
:1024F000B72D0008B72D0008B72D0008B72D00082C
:10250000B72D0008B72D0008B72D0008B72D00081B
:10251000B72D0008B72D0008B72D00082F2500089B
:10252000019BB3F5807F00F0E58000F044BC009B88
:10253000023B062B34D801A252F823F09B25000859
:102540005F250008A125000859250008A1250008DD
:10255000A1250008952500080223039326E0032304
:102560000393B84B03F580531A464FF48013536618
:10257000B54B9B6A03F08073002B14BF012300232B
:102580008DF80B30B04B03F580531A464FF480336F
:1025900093620BE00423039308E00123039305E017
:1025A00040F23161A94804F0F4FD00BF012102208E
:1025B00001F0E6FB04F063FE04F059FE00F0DEFFDC
:1025C000A04B1B6F23F007029E49039B13430B672D
:1025D00004F0E8FD0446FEF70FFF0346C3F10203D3
:1025E0001946204604F02FFE0121002001F09AFB3D
:1025F00001F010FA00F0CEFF9DF80B3083F00103DC
:10260000DBB2002B00F0DD83009B032B0ED18E4B41
:1026100003F500531A464FF48033936200BF8A4B90
:102620009B6D03F08043002BF9D100E000BFC8E3AD
:10263000009B102B09D0009B102B0FD8009B022B66
:1026400009D0009B072B03D008E0012303930BE084
:102650000323039308E00223039305E040F27A6129
:102660007A4804F096FD00BF764BD3F8803123F012
:1026700003027449039B1343C1F88031A4E3009B18
:10268000013B062B25D801A252F823F0C1260008F1
:10269000BB260008AF260008CD260008A9260008A2
:1026A000C7260008B52600080123039317E002237C
:1026B000039314E00423039311E0032303930EE038
:1026C000002303930BE00523039308E00623039301
:1026D00005E040F2B9615D4804F05BFD00BF594B75
:1026E000D3F8203123F007025649039B1343C1F866
:1026F000203169E3009B093B082B5FD801A252F807
:1027000023F000BF2927000829270008BD2700085B
:102710002927000873270008BD270008BD270008E7
:10272000BD27000829270008464B5B6E03F4803361
:10273000002B0CBF012300238DF80A30414B03F519
:1027400080531A464FF480335366FEF763FE9DF8BC
:102750000A30002B06D03B4B03F500531A464FF4CA
:10276000803353663A4B1B68394A23F004031360E5
:102770002AE0344B5B6E03F48033002B0CBF012343
:1027800000238DF80A302F4B03F580531A464FF47F
:1027900080335366FEF748FE9DF80A30002B06D0C2
:1027A000284B03F500531A464FF480335366284BE9
:1027B0001B68274A43F00403136005E040F2E1611F
:1027C000224804F0E6FC00BFFEE2009B013B0B2B1D
:1027D00026D801A252F823F01B280008212800085F
:1027E00021280008212800082128000821280008A5
:1027F00021280008212800080F28000809280008BF
:102800000928000815280008012303930EE002237D
:1028100003930BE00323039308E00023039305E0F5
:1028200040F20171094804F0B4FC00BF054BD3F835
:10283000403123F003020349039B1343C1F84031A5
:10284000C2E200BF008000500040005A44790008F6
:1028500010E000E0009B013B0B2B27D801A252F8AF
:1028600023F000BFA7280008AD280008AD28000805
:10287000AD280008AD280008AD280008AD280008E4
:10288000AD2800089B280008952800089528000816
:10289000A1280008012303930EE0022303930BE019
:1028A0000323039308E00023039305E040F2237120
:1028B000BC4804F06EFC00BFBB4BD3F8603123F082
:1028C0000302B949039B1343C1F860317CE2009BCA
:1028D000013B0E2B2FD801A252F823F0312900081A
:1028E0003729000837290008372900083729000848
:1028F0003729000837290008372900081F29000850
:102900001929000819290008252900083729000875
:10291000372900082B2900080123039311E0022323
:1029200003930EE0032303930BE00423039308E0D7
:102930000023039305E04FF4EE619A4804F029FC6C
:1029400000BF994BD3F8003223F007029649039B4E
:102950001343C1F8003237E2009B013B0E2B30D805
:1029600001A252F823F000BFBD290008C3290008C6
:10297000C3290008C3290008C3290008C329000887
:10298000C3290008C3290008AB290008A5290008AD
:10299000A5290008B1290008C3290008C329000897
:1029A000B72900080123039311E0022303930EE0EB
:1029B000032303930BE00423039308E00023039312
:1029C00005E040F29471774804F0E3FB00BF764BDA
:1029D000D3F8083223F007027349039B1343C1F86D
:1029E0000832F1E1009B013B082B21D801A252F8EB
:1029F00023F000BF2B2A0008312A0008192A0008FA
:102A0000312A0008312A0008312A0008312A00083A
:102A1000252A00081F2A0008012303930EE0022341
:102A200003930BE00323039308E00023039305E0E3
:102A30004FF4F6615B4804F0ACFB00BF5A4BD3F88F
:102A4000003123F003025849039B1343C1F80031BE
:102A5000BAE1564BDB6803F08073002B14BF0123EF
:102A600000238DF809309DF80930002B05D04F4B1D
:102A7000DB684E4A23F08073D360009B0E2B09D095
:102A8000009B0E2B0FD8009B062B06D0009B072B1C
:102A900006D008E0012303930BE00323039308E02F
:102AA0000223039305E040F2E1713E4804F071FB1C
:102AB00000BF3D4BD3F8803023F003023A49039B1B
:102AC0001343C1F880309DF80930002B00F07B8162
:102AD000364BDB68354A43F08073D36073E1009B6B
:102AE000013B112B35D801A252F823F04D2B0008E1
:102AF000532B0008532B0008532B0008532B0008BE
:102B0000532B00083B2B0008532B0008472B0008D1
:102B1000412B0008412B0008532B0008532B0008C1
:102B2000532B0008532B0008532B0008532B00088D
:102B3000352B00080123039311E0022303930EE0D9
:102B4000032303930BE00423039308E00023039380
:102B500005E040F63D01134804F01BFB00BF124B9B
:102B6000D3F8203223F007020F49039B1343C1F827
:102B7000203229E1009B023B052B28D801A252F804
:102B800023F000BFBD2B0008C32B0008C92B000891
:102B90009D2B0008B12B0008B72B000801230393DD
:102BA0001BE000BF4479000800800050F0ED00E019
:102BB0000523039311E0042303930EE003230393FF
:102BC0000BE00223039308E00623039305E040F69D
:102BD0006E017F4804F0DDFA00BF7E4BD3F8283148
:102BE00023F007027B49039B1343C1F82831EBE034
:102BF000009B013B0B2B27D801A252F823F000BF0A
:102C0000432C0008492C0008492C0008492C0008D6
:102C1000492C0008492C0008492C0008492C0008C0
:102C2000372C0008312C0008312C00083D2C0008FE
:102C3000012303930EE0022303930BE0032303938A
:102C400008E00023039305E040F6AC01604804F07F
:102C5000A0FA00BF5F4BD3F8403223F003025D4976
:102C6000039B1343C1F84032AEE0009B023B0F2BA5
:102C70002ED801A252F823F0B92C0008D12C00085C
:102C8000D12C0008D12C0008D12C0008BF2C000842
:102C9000D12C0008D12C0008D12C0008D12C000820
:102CA000D12C0008D12C0008D12C0008D12C000810
:102CB000C52C0008CB2C0008032303930EE004234B
:102CC00003930BE00123039308E00223039305E041
:102CD00040F6E2013E4804F05CFA00BF3D4BD3F8F9
:102CE000603223F007023B49039B1343C1F8603273
:102CF0006AE0009B023B0F2B2ED801A252F823F072
:102D0000412D0008592D0008592D0008592D0008A3
:102D1000592D0008472D0008592D0008592D00088D
:102D2000592D0008592D0008592D0008592D00086B
:102D3000592D0008592D00084D2D0008532D00086D
:102D4000032303930EE0042303930BE00123039377
:102D500008E00223039305E040F6FA011C4804F062
:102D600018FA00BF1B4BD3F8943223F0070219491D
:102D7000039B1343C1F8943226E0009B112B03D030
:102D8000009B152B03D005E00123039308E00223E9
:102D9000039305E04FF411610D4804F0FAF900BF08
:102DA0000C4BD3F8703223F003020A49039B134300
:102DB000C1F8703208E040F64211054804F0E9F924
:102DC00002E000BF00E000BF00BF04B010BD00BFC4
:102DD000447900080080005000B585B00190019B47
:102DE0001B680F2B04D940F66D31964804F0D1F9D9
:102DF000019B5B680F2B04D94FF43761914804F0B5
:102E0000C8F9019B9B680F2B04D940F673318D489C
:102E100004F0BFF9019B1B7B0F2B04D940F67631E0
:102E2000884804F0B6F9019B5B7B0F2B04D940F670
:102E30007931844804F0ADF9019B9B7B3F2B04D989
:102E400040F67C317F4804F0A4F9019BDB7B3F2BEB
:102E500004D940F67F317B4804F09BF9019B1B6944
:102E6000032B04D940F68231764804F092F9019B95
:102E70005B69032B04D940F68531724804F089F967
:102E8000019BDB69032B04D940F688316D4804F0BF
:102E900080F98020FEF7DCFF0346032B00F017814A
:102EA000694B03F580531A464FF480135366674B02
:102EB00045F60E02C3F88020644B03F580531A4692
:102EC0004FF0A0639362614B03F500531A464FF431
:102ED0008033936200BF5D4B9B6D03F48033002B06
:102EE000F9D100BF594B9B6D03F08043002BF9D102
:102EF000019B1B681A06019B5B681B051A43019B1B
:102F00001B7B1B041A43019B5B7B1B031A43019B26
:102F10009B7B9B011343019AD27B11464B4A0B4387
:102F200013614A4B9B6903F00042019B1B699B069E
:102F30001A43019B5B691B061A43019B1B7E1B0402
:102F40001A43019B5B7E1B021343019A927E11463A
:102F50003E4A0B4393613D4B1B6A23F00F03019ADA
:102F6000D269002A01D1002200E008221A43019B05
:102F7000DB7E9B001A43019BDB69344913430B62E0
:102F8000019BDB69002B67D1304B9A6A304B1340B1
:102F9000019A92F8202052011A43019B93F82130A4
:102FA0001B011A43019B93F82430DB001343274A8B
:102FB00043F48033936200BF244B9A6D254B13403A
:102FC000244A9342F8D1214B03F580531A464FF01F
:102FD000807393621D4B1B6923F47002019B9B68F5
:102FE0001B051A4913430B61184B03F580531A460E
:102FF0004FF000439361019B93F8223083F001036B
:10300000DBB2002B06D0114B03F500531A464FF0EC
:1030100080739362019B93F8233083F00103DBB24A
:10302000002B4AD0094B03F500531A464FF4803366
:10303000936200BF054B9B6D03F08043002BF9D1D9
:103040003BE000BF44790008008000500040005A77
:10305000C7FFFEFE03000100019BDB69022B12D1BA
:103060001D4B00221A611C4B00229A61022303931C
:10307000039B1A03039B1B0213431A464FF47F4121
:10308000164804F0A2F8144B9A6A154B1340019AA3
:1030900092F8202052011A43019B93F822301B061C
:1030A0001A43019B93F82430DB001A43019B93F8E9
:1030B00023301B04084913438B62019B93F825308E
:1030C000002B05D0044B074AC3F8802000E000BF66
:1030D00005B05DF804FB00BF0040005A3440005AC0
:1030E000C7FFFEFEF1A7FFFF024B93F90030184621
:1030F000704700BF8810002000B585B00190019B8B
:103100005B68072B04D940F6B351404804F041F8FE
:10311000019B9B68032B04D940F6B5513B4804F052
:1031200038F8019B1B78032B04D940F6B751374878
:1031300004F02FF8019B5B785BB2002B04DA40F6B9
:10314000B951324804F025F84F230393019B5B7873
:103150008DF80B309DF80B20039B934228BF13463C
:103160008DF80A302A4B03F580531A464FF40003BA
:103170005366284B4FF4D1525A62264B03F58053C5
:103180001A4602235360234B03F500531A460123CA
:10319000536000BF1F4B1B6903F48033002BF9D130
:1031A000019B1B781A029DF80A301A4913434B61A0
:1031B000019B5B681A02019B9B681B011A43019BE0
:1031C0001B7B5B001343019A527B1146114A0B4350
:1031D0009360019B9B7B5A01019BDB7B1B011A4384
:1031E000019B1B7C5B001343019A527C1A43094BE1
:1031F0005A60019B9B7C002B03D0064B6FF4D1528D
:103200005A6200BF05B05DF804FB00BF44790008B6
:10321000008000500000025082B00346ADF8063036
:10322000034ABDF80630138000BF02B0704700BFEC
:103230008410002082B00346ADF80630034ABDF882
:103240000630138000BF02B0704700BF8610002018
:1032500000B585B00190009100230293254BD3F86F
:10326000203203F00703042B2CD801A252F823F0DC
:10327000BF3200088532000895320008A3320008EA
:10328000B132000802AB0021184600F037F81223D3
:1032900003931FE0FDF7B4FE034602930723039355
:1032A00018E003F06EFF034602930A23039311E034
:1032B000FDF716FF03460293092303930AE0012357
:1032C000039307E00023039341F223010A4803F02C
:1032D00060FF00BF019B002B02D0029A019B1A6085
:1032E000009B002B02D0009B039A1A6000BF05B020
:1032F0005DF804FB008000504479000800B585B0FB
:103300000190009100230393294BD3F8283103F057
:103310000703013B052B33D801A252F823F000BF6D
:10332000393300085D330008753300085133000855
:103330004533000869330008FDF7EEFD03900523CF
:10334000029325E0FDF7E8FD0390062302931FE0BA
:10335000FDF756FE03900723029319E0FDF72EFEBA
:1033600003900323029313E0FDF728FE0390042348
:1033700002930DE0FDF73EFE03900223029307E067
:103380000023029341F264010A4803F002FF00BFE8
:10339000019B002B02D0019B039A1A60009B002B1B
:1033A00002D0009B029A1A6000BF05B05DF804FBD2
:1033B000008000504479000800B585B0019000916C
:1033C00000230293244BD3F8603203F00703013B40
:1033D000032B29D801A252F823F000BFED330008D7
:1033E000FD3300081B3400080D34000802AB002137
:1033F000184600F071F9102303931DE002AB002181
:10340000184600F0CBF91123039315E0FDF7F8FD02
:1034100003460293072303930EE0FDF7EBFD0346FB
:1034200002930223039307E00023039341F2C801B0
:103430000A4803F0AEFE00BF019B002B02D0029AA7
:10344000019B1A60009B002B02D0009B039A1A601C
:1034500000BF05B05DF804FB00800050447900080F
:1034600000B585B00190009100230293244BD3F85E
:10347000943203F00703013B032B29D801A252F831
:1034800023F000BF95340008A5340008C3340008B9
:10349000B534000802AB0021184600F01DF91023D6
:1034A00003931DE002AB0021184600F077F91123C9
:1034B000039315E0FDF7A4FD03460293072303934E
:1034C0000EE0FDF797FD034602930223039307E006
:1034D0000023039341F2FB010A4803F05AFE00BFA8
:1034E000019B002B02D0029A019B1A60009B002BCB
:1034F00002D0009B039A1A6000BF05B05DF804FB80
:10350000008000504479000800B585B0019000911A
:1035100000230293174BD3F8703203F00303012BFF
:1035200002D0022B08D00CE002AB0021184600F0BC
:1035300035F9112303930CE0002302931523039321
:1035400007E00023039341F226110B4803F021FE0C
:1035500000BF019B002B02D0029A019B1A60009BC6
:10356000002B02D0009B039A1A6000BF05B05DF8E3
:1035700004FB00BF0080005044790008044B03F5B1
:1035800080531A464FF48033136700BF704700BF63
:103590000080005008B58020FEF706F90346064A71
:1035A000934206D8054B03F500531A464FF4803377
:1035B000136700BF08BD00BF005A620200800050C0
:1035C00000B585B001900091002303931B4BD3F805
:1035D000803003F00303032B12D0032B16D8012BEA
:1035E00002D0022B06D011E0FDF79CFC03900E23C5
:1035F000029313E0FDF704FD0390072302930DE00F
:10360000FDF78AFC03900623029307E00023029350
:1036100041F2DF110A4803F0BCFD00BF019B002B03
:1036200002D0019B039A1A60009B002B02D0009BE2
:10363000029A1A6000BF05B05DF804FB00800050DC
:103640004479000800B585B00190009100230393F0
:103650001F4BD3F8003103F00303032B1FD801A243
:1036600052F823F0993600087536000881360008B4
:103670008D360008FDF7A2FC03900323029316E0A9
:10368000FDF72EFD03900923029310E003F076FD71
:103690000390082302930AE00123029307E000232A
:1036A000029341F215210B4803F073FD00BF019B0B
:1036B000002B02D0019B039A1A60009B002B02D0C2
:1036C000009B029A1A6000BF05B05DF804FB00BFC2
:1036D000008000504479000800B585B00190009149
:1036E000002303932B4BD3F8203103F00703062B61
:1036F00037D801A252F823F04537000815370008E3
:1037000021370008393700082D3700084B370008EB
:1037100057370008FDF700FC03900523029328E0CB
:10372000FDF74CFC03900323029322E0FDF768FCB5
:103730000390072302931CE0FDF75CFC0390022337
:10374000029316E00123029313E0FDF7E5FB0390DB
:10375000062302930DE0FDF731FC0390042302934E
:1037600007E00023029341F25C210B4803F011FDB6
:1037700000BF019B002B02D0019B039A1A60009BA3
:10378000002B02D0009B029A1A6000BF05B05DF8C2
:1037900004FB00BF008000504479000800B585B0EC
:1037A00001900091002303931F4BD3F8403103F0A5
:1037B0000303032B1FD801A252F823F0F1370008AE
:1037C000CD370008D9370008E537000803F0D9FCE9
:1037D00003900A23029316E0FDF782FC039009236D
:1037E000029310E003F0D1FC03900C2302930AE053
:1037F0000123029307E00023029341F28E210B483C
:1038000003F0C7FC00BF019B002B02D0019B039A71
:103810001A60009B002B02D0009B029A1A6000BF26
:1038200005B05DF804FB00BF00800050447900083B
:1038300000B585B001900091002303931F4BD3F88E
:10384000603103F00303032B1FD801A252F823F0C9
:1038500085380008613800086D380008793800089C
:1038600003F08FFC03900A23029316E0FDF738FC67
:1038700003900923029310E003F087FC03900C23CC
:1038800002930AE00123029307E0002302934FF41E
:1038900096510B4803F07DFC00BF019B002B02D02A
:1038A000019B039A1A60009B002B02D0009B029A96
:1038B0001A6000BF05B05DF804FB00BF0080005037
:1038C0004479000884B0019000914FF440130393B1
:1038D000009B002B0AD1019B0D4A934203D94FF460
:1038E000801303930FE0002303930CE0009B002B55
:1038F00009DD019B074A934203D94FF480130393D8
:1039000001E000230393039B184604B0704700BFF7
:10391000005A6202002D310100B585B0019000917E
:10392000184B03F580531A464FF4803393660020FA
:10393000FDF7B2FD0246019B02FB03F30193FDF785
:103940007DFD03468DF80F30FDF78EFDFDF794FDEC
:10395000034623F44013029300990198FFF7B2FF46
:103960000246029B134302930298FDF78BFD9DF8DC
:103970000F30002B01D0FDF76FFD00BF05B05DF8E3
:1039800004FB00BF0080005000B585B0019000919D
:10399000002302931D4BD3F8803103F00303032B64
:1039A0000ED0032B1AD8012B02D0022B0FD015E01A
:1039B00002AB00211846FFF78FFE1023039315E09A
:1039C000FDF71EFB03460293072303930EE0FDF76A
:1039D00011FB034602930223039307E000230393A2
:1039E00041F2B1310A4803F0D4FB00BF019B002B28
:1039F00002D0029A019B1A60009B002B02D0009B10
:103A0000039A1A6000BF05B05DF804FB0080005007
:103A10004479000800B583B0022301934FF4C070CD
:103A2000FDF7C2FE0346074A934201D801230193E2
:103A300001994FF42070FDF7A5FD00BF03B05DF8BC
:103A400004FB00BF80F0FA0200B585B00190009140
:103A5000002303931F4BD3F8403203F00303032BDF
:103A60001FD801A252F823F09D3A0008793A0008C5
:103A7000853A0008913A000803F083FB03900A237B
:103A8000029316E0FDF72CFB03900923029310E04C
:103A900003F07BFB03900C2302930AE001230293C3
:103AA00007E00023029341F22E410B4803F071FB23
:103AB00000BF019B002B02D0019B039A1A60009B60
:103AC000002B02D0009B029A1A6000BF05B05DF87F
:103AD00004FB00BF008000504479000800B585B0A9
:103AE0000190009100230393244BD3F8003203F09C
:103AF0000703042B29D801A252F823F0453B000804
:103B0000113B00081D3B0008293B0008353B00081D
:103B100003F037FB03900A2302931EE0FDF7E0FA5F
:103B200003900923029318E003F02FFB03900C236A
:103B3000029312E0FDF71EFA03469B0A03930F233C
:103B400002930AE00123029307E00023029341F26B
:103B50006F410B4803F01DFB00BF019B002B02D0FF
:103B6000019B039A1A60009B002B02D0009B029AD3
:103B70001A6000BF05B05DF804FB00BF0080005074
:103B80004479000800B585B00190009100230393AB
:103B9000244BD3F8083203F00703042B29D801A2E1
:103BA00052F823F0ED3B0008B93B0008C53B000884
:103BB000D13B0008DD3B000803F0E3FA03900A2341
:103BC00002931EE0FDF78CFA03900923029318E09C
:103BD00003F0DBFA03900C23029312E0FDF7CAF91D
:103BE00003469B0A03930F2302930AE001230293E7
:103BF00007E00023029341F2A7410B4803F0C9FA02
:103C000000BF019B002B02D0019B039A1A60009B0E
:103C1000002B02D0009B029A1A6000BF05B05DF82D
:103C200004FB00BF008000504479000800B585B057
:103C30000190009100230393114B1B6803F00403D0
:103C4000002B06D0FDF796F9034603930D2302934C
:103C500005E002AA03AB11461846FFF79FFD019B42
:103C6000002B02D0039A019B1A60009B002B02D00C
:103C7000029A009B1A6000BF05B05DF804FB00BF0C
:103C800010E000E0024B034A1A6400BF704700BF17
:103C9000004009503254FFFF024B4AF6CD321A64FD
:103CA00000BF70470040095082B0019000BF054B33
:103CB0005A6B019B1340002BF9D100BF00BF02B02B
:103CC000704700BF0040095008B500BF04210448F8
:103CD00003F010FB0346002BF8D100BF00BF08BD66
:103CE0008440005008B5FFF7EFFF044BD3F8843051
:103CF0009B0903F00303DBB2184608BD00400050E7
:103D000082B00190064BDB6E23F03003019A1279EA
:103D10001146034A0B43D36600BF02B0704700BF91
:103D20000040005000B585B001900B468DF803307F
:103D3000019B002B03D1FDF7F5F8039001E0019BF7
:103D400003930D4B1B78002B0AD0039B0B4A934225
:103D500006D89DF803301946012000F011F806E05E
:103D60009DF803301946022000F00AF800BF00BF9A
:103D700005B05DF804FB00BFE0100020005A6202AD
:103D800010B586B003460A468DF8073013468DF805
:103D90000630FFF7A7FF03461A469DF80730934207
:103DA00052D0FDF7BFF80590059B04939DF80730AE
:103DB000012B0CD1049B264A934204D940F2927104
:103DC000244803F0E6F90121059803F03CFA03F0DA
:103DD00060FA0390204B03F500531A464FF000732E
:103DE00053669DF80730184603F09FFA1A4C9DF869
:103DF0000730184603F08BFA034623670BE0164B97
:103E0000D3F8843003F02003002B04D04FF4F46186
:103E1000104803F0BEF9104B5B6E03F00073002BEB
:103E200006D10D4BD3F8843003F02003002BE6D0ED
:103E3000039803F03AFA9DF80730022B05D10021D0
:103E4000059803F000FA00E000BF06B010BD00BF07
:103E5000005A6202787900080040005000B587B02F
:103E600003468DF807300023059300230493404B4D
:103E700003F580531A464FF0004353663D4B5B6C8D
:103E800003F00103002B14BF012300238DF80F3032
:103E9000FFF702FF9DF80730002B28D10120FFF724
:103EA00003FF344B5B6803F001030293029B002B7A
:103EB00050D0304B03F500531A460123536002E003
:103EC000049B013304932B4B1B6B03F00103002B6A
:103ED00003D1049B284A9342F2D9049B264A934279
:103EE00038D90723059335E0049B01330493214B14
:103EF0001B6B03F00803002B03D0049B1E4A934264
:103F0000F2D9049B1C4A934202D90723059321E06E
:103F1000184B03F500531A4620239362154B03F503
:103F200080531A46012353600023049302E0049B4C
:103F3000013304930F4B9B6A03F02003002B03D142
:103F4000049B0D4A9342F2D9049B0B4A934201D938
:103F5000072305939DF80F30002B01D0FFF792FE49
:103F600003F0EAF9059B184607B05DF804FB00BFB3
:103F700000800050004009503F420F0000B585B05E
:103F80000190254B03F580531A464FF000435366CA
:103F9000224B5B6C03F00103002B14BF01230023B1
:103FA0008DF80F30FFF778FE019B5B785B001C4AB1
:103FB00043F00103D3630B20FFF776FE174B5B68DA
:103FC00023F4F872019B9B781B01144913434B6047
:103FD000019BDB781B02019A527911460F4A0B4371
:103FE0009360019B1B791B02019A927911460B4A3F
:103FF0000B431361019B1B781846FFF72FFF9DF8B9
:104000000F30002B01D0FFF73DFE03F095F901239F
:10401000184605B05DF804FB0080005000400950D0
:104020000040005000B585B0019000238DF80F309E
:1040300000238DF80E30019B0F2B04D940F62D6123
:10404000224803F0A6F8019B0F2B01D90F230193FF
:104050001F4B5B6EDB0F8DF80E301D4B03F580534D
:104060001A464FF0004353661A4B5B6C03F0010392
:10407000002B14BF012300238DF80F30FFF70CFE37
:104080008020FFF711FE134B1B6A23F00F0211492A
:10409000019B13430B629DF80F30002B01D0FFF7FB
:1040A000F1FD9DF80E3083F00103DBB2002B06D04A
:1040B000074B03F500531A464FF00043536603F0D5
:1040C0003BF900BF05B05DF804FB00BF787900083C
:1040D000008000500040095000B583B003460091B5
:1040E0008DF807309DF80730002B14D09DF807306D
:1040F000012B0ED09DF80730022B07D09DF807301A
:10410000032B01D13F2307E0002305E040F2FF33FA
:1041100002E00F2300E0FF23009AD34003F00103E5
:10412000002B04D140F2FE310A4803F032F80A486D
:104130009DF807200121009B994013465B00134422
:104140001B01034403F50153196000BF03B05DF880
:1041500004FB00BFE079000800C0035000B583B045
:10416000034600918DF807309DF80730002B14D0DE
:104170009DF80730012B0ED09DF80730022B07D099
:104180009DF80730032B01D13F2307E0002305E012
:1041900040F2FF3302E00F2300E0FF23009AD340F8
:1041A00003F00103002B04D140F22D410A4802F034
:1041B000F0FF0A489DF807200121009B9940134613
:1041C0005B0013441B01034403F58253196000BFD5
:1041D00003B05DF804FB00BFE079000800C00350A5
:1041E00000B585B002910192009303468DF80F301F
:1041F0009DF80F30002B14D09DF80F30012B0ED0FE
:104200009DF80F30022B07D09DF80F30032B01D102
:104210003F2307E0002305E040F2FF3302E00F23D5
:1042200000E0FF23029AD34003F00103002B04D1E6
:104230004FF4B071304802F0ACFF019B002B0FD05F
:10424000009B002B06D09DF80F3002991846FFF70F
:1042500085FF05E09DF80F3002991846FFF73CFFF7
:10426000029B072B17D89DF80F2013465B001344C1
:104270001B011A1D214B1344029A92000F2101FACF
:1042800002F0029A9200019901FA02F201461846E0
:1042900003F054F819E09DF80F2013465B00134417
:1042A0001B0103F10C02154B1344029A083A9200C9
:1042B0000F2101FA02F0029A083A9200019901FADC
:1042C00002F20146184603F039F8019B002B0FD18A
:1042D000009B002B06D09DF80F3002991846FFF77F
:1042E0003DFF05E09DF80F3002991846FFF7F4FEF8
:1042F00000BF05B05DF804FB187A000830C0035019
:1043000000B587B0039002910192029B1F2B03D945
:1043100091210C4802F03DFF019B002B04D0039B30
:1043200003F58053059303E0039B03F500530593C6
:10433000059B0121029A01FA02F21A6000BF07B040
:104340005DF804FB507A000800B589B00390029133
:1043500001928DF80330019B002B04D140F215111E
:104360005B4802F016FF019B002B00F0AD809DF82A
:10437000033003F003038DF80330039B9B6823F4A1
:104380004072039B9A60039B03F108009DF8033081
:104390001B021A464FF4407102F0F6FF029B002BFD
:1043A00016D1039BB3F1B64F04D12E20FDF7FCF9D3
:1043B00002900DE0039B474A934204D12F20FDF762
:1043C000F3F9029004E040F22F11414802F0E1FEBF
:1043D0004FF0FF330793039B9B6803F00203002B0E
:1043E00013D09DF80330022B0CD0022B21DC002BC4
:1043F00002D0012B03D01CE0374B07931CE0374B56
:10440000079319E0364B079316E09DF80330022B13
:104410000CD0022B0FDC002B02D0012B03D00AE0C2
:104420002D4B079308E02F4B079305E02E4B079386
:1044300002E000BF00E000BF029A079B9A4204D846
:104440004FF4B271224802F0A4FE9DF80330274ACF
:10445000D35C0593059B019A02FB03F30493049B31
:10446000002B05D140F27511194802F092FE2CE0A4
:10447000019BDB00029AD21A049B13445A1E049B30
:10448000B2FBF3F3013B0693069B002B04DA40F2E8
:104490007B110F4802F07DFE069BB3F5007F04D32D
:1044A0004FF4BE710A4802F074FE039B9B6803F050
:1044B0000203002B04D0069B002B01D1012306939D
:1044C000069A039B9A6100E000BF09B05DF804FB07
:1044D000847A00080080065080841E00404B4C0007
:1044E000809FD50040548900002D3101B87A000822
:1044F00000B583B001900B468DF80330019BB3F1FA
:10450000B64F08D0019B0A4A934204D040F295115D
:10451000084802F03EFE019B04339DF80320002171
:104520001846FFF7EDFE00BF03B05DF804FB00BFC7
:1045300000800650847A000800B583B00190009195
:10454000019BB3F1B64F08D0019B174A934204D0A8
:104550004FF4D571154802F01CFE019B00221A642D
:104560001349019802F004FF019B03F10800009B2E
:104570005B7883F00103DBB21A460121FFF7C0FE2E
:10458000009B5968009B9A68009B1B7B0198FFF772
:10459000DBFE009B1B7819460198FFF7A9FF00BFBF
:1045A00003B05DF804FB00BF00800650847A000869
:1045B000FFFF1F0000B58BB0019000238DF81F3066
:1045C000019BB3F1B64F08D0019BA04A934204D09F
:1045D00040F201219E4802F0DCFD019BB3F1B64F91
:1045E00002D19C4B089309E0019B984A934202D167
:1045F000994B089302E06FF003033CE2089B9B6831
:1046000006931BE2019BDB6B0593059B03F4C063E0
:10461000002B14D0059B03F40073002B03D0089BE0
:10462000FD225A7007E0059B03F48063002B02D043
:10463000089BFE225A70089B09221A7006E2089B0A
:104640001B78082B00F2EF8101A252F823F000BF83
:1046500075460008CD4600085D470008B9470008C8
:104660002748000893480008274900086F490008B8
:10467000054A0008069B5B8803F01003002B09D055
:10468000069B1B881B0A9BB203F0060343F0F00352
:1046900009930EE0069B1B8803F0FE030993069B1B
:1046A0005B8803F00203002B03D0099B43F0010356
:1046B0000993089B01221A70019B099A5A63019B76
:1046C0000122DA6001238DF81F30B7E1059B03F06A
:1046D0008003002B0DD08021019802F049FE089B39
:1046E000FF225A70089B08221A70019B0222DA608E
:1046F00030E0059B03F04003002B2BD040210198B4
:1047000002F036FE069B5B8803F01003002B08D0F6
:10471000089B02221A70069B1B88DAB2019B5A631F
:1047200018E0069B5B8803F00203002B0ED0089B69
:1047300007221A70089B1B79069ADB0013441B8919
:10474000012B07D1019B0822DA6003E0089B0522B8
:104750001A7073E101238DF81F306FE1059B03F0A0
:104760008003002B0DD08021019802F001FE089BF0
:10477000FF225A70089B08221A70019B0222DA60FD
:1047800016E0059B03F04003002B11D04021019857
:1047900002F0EEFD069B5B8803F00203002B03D0C2
:1047A000089B03221A7049E1089B05221A7045E113
:1047B00001238DF81F3041E1069B5B8803F0100355
:1047C000002B09D0069B1B881B0A9BB203F0060333
:1047D00043F0F003099304E0069B1B8803F0FE03FB
:1047E0000993069B5B8803F00403002B0ED0099B02
:1047F00043F001030993089B1B79069ADB001344DD
:104800001B89012B02D1019B0822DA60089B04223C
:104810001A70019B0122DA60019B099A5A630123F5
:104820008DF81F300AE1059B03F08003002B15D0A3
:104830008021019802F09CFD089BFF225A70089B82
:1048400008221A70019B0222DA601EE000800650E6
:10485000847A0008E4100020F0100020059B03F08B
:104860004003002B11D04021019802F081FD069BEE
:104870005B8803F00403002B03D0089B07221A7007
:1048800003E0089B05221A70D8E001238DF81F3041
:10489000D4E0089B5A88089B1B790699DB000B44DF
:1048A0001B899A4227D3089B00225A80089B1B79B8
:1048B0000133DAB2089B1A71069B5B8803F004038C
:1048C000002B03D0089B03221A70B7E0069B5B887D
:1048D00003F00103002B04D1089B1B79012B40F24C
:1048E000AC80089B08221A70019B0222DA60012327
:1048F0008DF81F30A2E0089B1B79069ADB00134459
:104900005A68089B5B88591C88B2089948801344F0
:104910001B781A46019B5A63089B06221A700123D2
:104920008DF81F308AE0059B03F08003002B0DD02B
:104930008021019802F01CFD089BFF225A70089B01
:1049400008221A70019B0222DA600CE0059B03F03A
:104950004003002B07D04021019802F009FD089B7D
:1049600005221A706AE001238DF81F3066E0059B6E
:1049700003F02003002B41D0089B1B79069ADB0033
:1049800013441B890493019B5B6A8DF80F3020212F
:10499000019802F0EDFC089B5B881A46049B934249
:1049A0000FD9089B1B79069ADB0013445A68089BB1
:1049B0005B88591C88B20899488013449DF80F20E1
:1049C0001A70089B5B881A46049B934206D8089B82
:1049D00008221A70019B0222DA600FE0019B042278
:1049E000DA60049B012B09D9089B5B881A46049B5B
:1049F000013B9A4202D1019B0822DA6001238DF823
:104A00001F301BE0059B03F48073002B07D04FF48D
:104A10008071019802F0ACFC089B09221A700123F6
:104A20008DF81F300AE0089BFB225A70089B092270
:104A30001A7001238DF81F3000E000BF9DF81F3071
:104A400083F00103DBB2002B7FF4DCAD089B1B7805
:104A5000092B0BD1019B00221A64089B93F90130AA
:104A6000012B05D1089B00225A7001E0012302E0CE
:104A7000089B93F9013018460BB05DF804FB00BFAA
:104A800000B585B001900091019BB3F1B64F08D0FD
:104A9000019B344A934204D040F26931324802F01B
:104AA00078FB009B002B04D140F26A312E4802F0C3
:104AB00070FB019BB3F1B64F02D12C4B039309E07D
:104AC000019B284A934202D1294B039302E06FF0E5
:104AD000030342E0019B1B6903F00103002B02D09A
:104AE000019B2022DA60009B5B8803F00203002B0D
:104AF00003D0009B1B89002B09D0009B5B8803F02F
:104B00000403002B06D0009B1B8A002B02D16FF000
:104B1000030322E0039B00221A70039B01225A70B8
:104B2000039B00225A80039B00221A71039B009A68
:104B30009A60019BC022DA60019802F03FFC0D49A7
:104B4000019802F015FC019B1B6C43F4FC62019B75
:104B50001A640198FFF72EFD0346184605B05DF86C
:104B600004FB00BF00800650847A0008E410002097
:104B7000F0100020FFFF1F0082B0019000BF019BDA
:104B80005B6903F08073002BF9D1019B03F500539F
:104B90001A460123536000BF044B5B6803F0020315
:104BA000002BF9D100BF00BF02B070470040005990
:104BB00030B5A5B00590049103924FF000031C930B
:104BC000B54B07AC1D460FCD0FC495E8030084E834
:104BD0000300059BB14A934203D0F121B04802F093
:104BE000D8FA0022AF49059800F0B2FD03468DF8CF
:104BF0008730049B5B79ADF86E309DF887309BB2AF
:104C0000BDF86E209A4203D3BDF86E308DF8873020
:104C10000598FFF7B1FF049B1B798DF886309DF84E
:104C20008630002B14D12A20FCF7BEFD1F901F9B5D
:104C30009C4A934205D39DF887301F9AB2FBF3F349
:104C40001F931F99059800F033FD03468DF88630B9
:104C5000049BDB781B0103F030029DF886301B04B7
:104C600003F4FE031A439DF887301B0703F0E0436B
:104C700013432393049B1B78002B03D0239B43F007
:104C800002032393049B5B78002B03D0239B43F008
:104C900004032393049B9B78002B03D0239B43F0B6
:104CA00008032393059B239A9A60049BDB881A468A
:104CB000059B1A61049B1B891B04049A52891A43A1
:104CC000059B1A620023229300F012BC0399229ADA
:104CD00013469B0013449B000B441B788DF86D30EA
:104CE0000399229A13469B0013449B000B440833FC
:104CF0001B68ADF86E309DF86D30002B07D09DF825
:104D00006D30012B01D1684902E0684900E0684933
:104D10009DF86D209DF8873000931346002205987A
:104D200000F05CFD1A901A9B1993BDF86E30ADF837
:104D30006230BDF86220199B934238BF13461A9324
:104D4000059A229B1B01134448331A68594B1340A0
:104D500023939DF86D3003F00302239B42EA030185
:104D60000398229A13469B0013449B00034401338B
:104D70001B789B0003F01C0319430398229A1346E7
:104D80009B0013449B00034402331B785B01DBB29E
:104D900019430398229A13469B0013449B00034433
:104DA00003331B781B0303F4E04319430398229A4F
:104DB00013469B0013449B00034404331B781B04DD
:104DC00003F4E02319430398229A13469B001344EB
:104DD0009B00034410331B785B0503F46003194305
:104DE0000398229A13469B0013449B000344053307
:104DF0001B781B0703F0405341EA03020599229BED
:104E00001B010B4448331A60059A229B1B01134473
:104E100048331B681B0B03F007031793179B013BD9
:104E2000042B27D801A252F823F000BF414E0008FE
:104E3000414E00084D4E00085B4E0008674E0008CA
:104E40001D4BD3F88031ADF8843019E01A4BD3F8FC
:104E500080311B0CADF8843012E0174BD3F884314D
:104E6000ADF884300CE0144BD3F884311B0CADF852
:104E7000843005E0104BD3F88031ADF8843000BFAA
:104E80009DF86D30012B02DC002B17DA1DE3022B9D
:104E900000F0C68119E300BFF47A00080040005911
:104EA000BC7A0008005A6202002D3101404B4C00D0
:104EB00080969800008F18CF0080E00F4FF000031D
:104EC0001E93179B032B1BD19DF86D30002B0BD12C
:104ED000C64BD3F88C311B0C1BB207EE903AF8EEA0
:104EE000E77ACDED1E7A52E0C04BD3F894311B0C1B
:104EF0001BB207EE903AF8EEE77ACDED1E7A46E067
:104F0000179B042B1DD19DF86D30002B0CD1B74B96
:104F1000D3F88C311B0C1BB25B0007EE903AF8EE15
:104F2000E77ACDED1E7A32E0B04BD3F894311B0C0A
:104F30001BB25B0007EE903AF8EEE77ACDED1E7AF1
:104F400025E0179B052B22D19DF86D30002B0FD14A
:104F5000A64BD3F88C311B0C1BB21A4613465B00D0
:104F6000134407EE903AF8EEE77ACDED1E7A0EE0A4
:104F70009E4BD3F894311B0C1BB21A4613465B00B0
:104F8000134407EE903AF8EEE77ACDED1E7ABDF8BD
:104F9000842049F6FF7313402393239B9B041D93A6
:104FA000239B03F40043002B03D01D9B43F00043DD
:104FB0001D93059A229B1B01134448331B689B08D1
:104FC00003F007030133012202FA03F30E930E9B51
:104FD000022B21D19DF86D30002B0ED1834BD3F8DD
:104FE0008C311BB207EE903AF8EEE77A9DED1E7A0F
:104FF00077EE277ACDED1E7A50E07C4BD3F89431D2
:105000001BB207EE903AF8EEE77A9DED1E7A77EE46
:10501000277ACDED1E7A41E09DF86D30002B0ED140
:10502000724BD3F890311BB207EE903AB8EEE77AA4
:10503000DDED1E7A77EE677ACDED1E7A11E06B4BCF
:10504000D3F898311BB207EE903AB8EEE77ADDED6F
:105050001E7A77EE677A9DED1E7A77EE277ACDED90
:105060001E7A0E9B07EE903AF8EEE77AF0EE006AB1
:1050700087EEA67ADDED1E6AC6EE877ACDED1E7A42
:105080005A4BD3F888311BB207EE903AF8EEE77A24
:105090009DED1E7A77EE277ACDED1E7A0399229A3E
:1050A00013469B0013449B000B4404331B78002BD6
:1050B0001ED10399229A13469B0013449B000B4474
:1050C00004331B78184600F0F9FB07EE900AF8EE5F
:1050D000677ADFED4B6A87EEA67AF7EE046AC6EED2
:1050E000877A9DED1E7A67EE277ACDED1E7A1AE05B
:1050F0000399229A13469B0013449B000B440C33E4
:105100001B6807EE903AF8EE677ADFED3D6A87EEAE
:10511000A67AF7EE046AC6EE877A9DED1E7A67EEF0
:10512000277ACDED1E7ADDED1E7AB1EE007A27EEFC
:10513000877A0E9B07EE903AF8EEE76A9FED2C6AAD
:10514000C6EE267ADFED2B6A67EEA67A77EE277A2F
:10515000CDED1E7A1D9BB3F1004F17D0BDF8843002
:1051600007EE903AF8EEE77ADFED236A87EEA67A4B
:10517000DDED1E7ADFED216A77EEA67A67EE277AFB
:105180009FED1E7A77EEC77ACDED1E7ADDED1E7AA1
:10519000F5EEC07AF1EE10FA0ADDDDED1E7AF1EEE1
:1051A000677AB6EE007A77EEC77AFDEEE77A07E027
:1051B000B6EE007ADDED1E7A77EE677AFDEEE77ADD
:1051C000CDED0D7A0D9BB3F5003F06DB1D9B6FEA1D
:1051D00053436FEA43431D931AE00D9B13F5003FC1
:1051E00010DA1D9B43F400331D9311E00080E00FA3
:1051F00000008043000020440000004700000049F8
:1052000000007A440D9BC3F311031D9A13431D93B1
:10521000059A229B05331B0113441D9A1A605AE11B
:105220000399229A13469B0013449B000B440433BA
:105230001B78184600F042FB07EE900AB8EE677A3A
:105240005FED116AC7EE267ACDED1C7A059A229B96
:105250001B01134448331B685B09DBB203F00703EF
:105260008DF85B309DF85B309B0090336B44743B52
:10527000D3ED007AFCEEE77A17EE903A5C2B02D180
:10528000A44B209317E09DF85B309B0090336B4458
:10529000743BD3ED006A9DF85B309B0090336B4408
:1052A000743BD3ED007AB7EE007A37EE877AC6EE1C
:1052B000877ACDED207ABDF8843007EE903AB8EECB
:1052C000677ADFED956AC7EE267A9DED207A67EE64
:1052D000277ACDED157ADDED157A9FED8F7A67EEA1
:1052E000877AF5EEC07AF1EE10FA0CD5DDED157A7D
:1052F0009FED897A67EE877AB6EE007A77EEC77A05
:10530000FDEEE77A0BE0DDED157A9FED837A67EE2F
:10531000877AB6EE007A77EE877AFDEEE77ACDED02
:10532000147A7E4A229B05331B0113441B687B4A77
:10533000229B05331B01134400221A60149B03F4C3
:105340000043002B0ED0754A229B05331B011344EA
:105350001B68724943F00042229B05331B010B443A
:105360001A600BE06D4A6D49229B05331B01134403
:105370001A68229B05331B010B441A60674A229B63
:1053800005331B0113441A68149B9904644B0B40AA
:1053900062491A43229B05331B010B441A60614B7F
:1053A000D3F88831002313935E4BD3F888311BB2B6
:1053B00007EE903AF8EEE77ACDED127A9DF85B3081
:1053C000012202FA03F3139A92FBF3F307EE903AE9
:1053D000F8EEE77A9DED127A77EE277ACDED117A25
:1053E000F7EE046A9DED1C7AC6EE877A9DED117A80
:1053F00067EE277ACDED117A9DF85B309B009033F4
:105400006B44743BD3ED007A9FED477AC7EE276A71
:105410009DF85B309B0090336B44743BD3ED007A76
:10542000B7EE007A77EE877A86EEA77ADDED117A0D
:10543000F1EE006A67EEA67A77EE277A9FED3B7A67
:1054400077EE877ACDED107ABDF8843007EE903A8A
:10545000B8EEE77ADFED306AC7EE267AB1EE677A0A
:10546000DDED107A67EE277A9FED307A77EE877A56
:10547000CDED107ADDED107AF5EEC07AF1EE10FA8E
:1054800008D5DDED107AB6EE007A77EEC77AFDEE3C
:10549000E77A07E0DDED107AB6EE007A77EE877AEC
:1054A000FDEEE77ACDED0F7A1C4A229B05331B01F6
:1054B00013441A680F9BC3F3110318491A43229B24
:1054C00005331B010B441A6005E040F2F111184846
:1054D00001F05FFE00BF1A9BC3F309020599229BEE
:1054E00005331B010B4404331A60229B01332293C2
:1054F000059B0A4A934201D1022200E00022229B2E
:105500009A423FF6E3AB059801F075FF00BF25B066
:1055100030BD00BFE71B753F000000470040005949
:105520000000FC7F0080E00F000080480000004980
:10553000BC7A000800B587B0039002910192039BEA
:10554000594A934204D040F21721584801F021FEF5
:105550000398FFF711FB029B1B7803F00703029AE5
:105560005278002A01D0082200E000221A43029B50
:105570009B781B0103F070031343029AD278002A30
:1055800002D04FF4807200E000221A43039BC3F85C
:105590008020039BDB6A23F01702029B1B7903F038
:1055A00007031A43029B5B791B0103F010031A43A4
:1055B000039BDA620023059336E00199059A1346AE
:1055C0009B0013440B441B7818460199059A134617
:1055D0009B0013440B4401331B781B029BB240EA2F
:1055E00003010198059A13469B00134403440233B8
:1055F0001B781B0403F4803319430198059A134662
:105600009B001344034403331B78002B02D04FF458
:10561000003300E000231943039B059A283243F826
:105620002210059B01330593039B1F4A934201D12E
:10563000102200E00022059B9A42BED8039801F098
:10564000DAFE002304930023059313E00199059AE1
:1056500013469B0013440B4404331B78002B06D0E5
:105660000122059B02FA03F3049A13430493059B5A
:1056700001330593039B0C4A934201D1102200E0B1
:105680000022059B9A42E1D8039B049A9A61029BEF
:105690009B79002B03D00821039801F0A3FE00BFE3
:1056A00007B05DF804FB00BF00400059BC7A000859
:1056B00000B587B001900091019B214A934204D02C
:1056C00040F26F311F4801F064FD009B002B18D1A0
:1056D0002A20FCF769F80090009B002B01D10123E0
:1056E0000093009B184A93420BD9154B9B681B0FE4
:1056F00003F007030593059B0133009AB2FBF3F314
:105700000093009B03F5742303F23F230093009B57
:105710000E4AA2FB03239B0C0093009B013B0093CA
:10572000009B04937F230393039A049B934228BF17
:1057300013460093009BDBB2184607B05DF804FBEC
:1057400000400059BC7A0008005A620283DE1B4305
:1057500000B589B0039002910192039B1C4A9342C9
:1057600004D040F2AA311B4801F013FD029B002B2C
:1057700004D140F2AB31174801F00BFD029B0693B8
:10578000154B0593059A069B934228BF1346029337
:10579000019B002B03D12A20FCF706F80190019A07
:1057A000029B13445A1E029BB2FBF3F30793079B21
:1057B000002B02D0079B013B0793079B032B01D9CA
:1057C00003230793079BDBB2184609B05DF804FB7F
:1057D00000400059BC7A0008005A620200B589B046
:1057E0000390029101928DF80330039B2E4A93425D
:1057F00004D04FF479712D4801F0CBFC029B002BB3
:1058000004D140F2E531294801F0C3FC9DF8033092
:10581000002B07D09DF80330012B01D1244B02E06F
:10582000244B00E0244B029A93420DD29DF80330A2
:10583000002B07D09DF80330012B01D11C4B02E057
:105840001C4B00E01C4B0293019B002B04D12A202F
:10585000FBF7AAFF069001E0019B06939DF8283014
:105860000133069AB2FBF3F30693069A029B1344A4
:105870005A1E029BB2FBF3F30793079B002B02D047
:10588000079B013B0793079B059340F2FF3304936B
:10589000049A059B934228BF13460793079B9BB22C
:1058A000184609B05DF804FB00400059BC7A0008B6
:1058B000002D3101404B4C008096980000B585B01A
:1058C00003468DF807300023039302AB184600F01F
:1058D00039F89DF80730042B20D801A252F823F0A4
:1058E000F5580008FD580008055900080D59000832
:1058F0001559000840F2BA43039315E040F2E24321
:10590000039311E040F6C41303930DE040F6B8335F
:10591000039309E04FF41663039305E040F29141CD
:10592000044801F036FC00BF039B184605B05DF843
:1059300004FB00BFBC7A0008014B9B691846704706
:1059400000C0075000B585B00190114B03F580539E
:105950001A464FF480335366FFF7EEFF0390039B24
:105960009B09DBB203F03F03DAB2019B9A70039B01
:10597000DBB203F03F03DAB2019B5A70039B1B0BAF
:10598000DAB2019B1A7000BF05B05DF804FB00BFDE
:105990000080005082B001900B468DF80330019BCF
:1059A000084A934204D1084A9DF80330C2F8C8312E
:1059B000019BDB6D43F08002019BDA6500BF02B002
:1059C000704700BF00C005500080035000B587B08D
:1059D000039002910192019B002B04D140F28E2191
:1059E000124801F0D6FB029B002B04D14FF420702B
:1059F000FBF7DAFE0290029B5A1E019B5B00B2FB92
:105A0000F3F30593059B1B020593059A084B13407E
:105A1000002B04D040F2B321044801F0BAFB039BF1
:105A2000059ADA6100BF07B05DF804FB0C7B000843
:105A3000070080FF00B583B001900091019B3D4AB3
:105A4000934204D040F269313B4801F0A2FB019837
:105A500000F074F8019B03F580531A46012353604C
:105A6000019B9A68009B1B8A43F001039BB2194675
:105A7000009B9B7B002B02D04FF4806300E000234F
:105A80000B431A43019B9A60019B9B68009A127D0D
:105A9000002A02D04FF0005200E000221A43019B7E
:105AA0009A60009B9B7C002B05D0009BDB7C1946F9
:105AB0000198FFF76FFF009B1B7B43F48052019B13
:105AC000DA60009B5968009B9B681A460198FFF7B3
:105AD0007DFF009B5B7B002B02D0019B10225A6153
